0190000000000000000040700010009000900000032040100000004111012100000000002000010201105231632250777050100000000000200000000ALCANTARA HERMITA‹O EDYTH          0501022985
0190000000000000000041735010009000900000032040100000004194272400000000002000010201105231632530777050100000000000200000000AVILES MACHACA WILHUER             0501022985
0199911305011     01304470000010001000000170101               00000000000810010201105231712400778050100000000000200000000DOMINGUEZ                     GUTIE0501022985
0190741203048     00316540000010001000000180101               00000000000120010201105231628200777050100000000000200000000ESPINOZA                      MACHO0501022985
0190000000000000000036739010009000900000032040100000004365847600000000002000010201105231630380777050100000000000200000000FLORES RAMOS ELVA                  0501022985
0190052333032     09659250000010001000000220101               00000000000610010201105231558200183050100000000000200000000JUSTO                         LLANT0501022985
0190000000000000000039711010009000900000032040100000000420011500000000002000010201105231631580777050100000000000200000000LOYOLA MAGUI‹O DELIA               0501022985
0190000000000000000038586010009000900000032040100000000422157400000000002000010201105231631280777050100000000000200000000LOYOLA MAGUI‹O ROSA                0501022985
0190325403147     01975420000010001000000380101               00000000000100010201105231725070775050100000000000200000000OJEDA                         ENRIQ0501022985
0190325403147     01978870000010001000000100101               00000000000200010201105231725170775050100000000000200000000OJEDA                         ENRIQ0501022985
0190325403147     01982010000010001000000390101               00000000000100010201105231725270775050100000000000200000000OJEDA                         ENRIQ0501022985
0190325403147     01985040000010001000000160101               00000000000100010201105231725340775050100000000000200000000OJEDA                         ENRIQ0501022985
0190325403147     01989660000010001000000420101               00000000002000010201105231725470775050100000000000200000000OJEDA                         ENRIQ0501022985
0190000000000000000042809010009000900000032040100000004231325400000000002000010201105231633210777050100000000000200000000PAUCAR CAMONES IDER ALIDIO         0501022985
0190000000000000000996666010009000900000043040100000007309929100000000005010010201105231612210777050100000000000200000000RAMOS BASTERES JUAN CARLOS         0501022985
0190000000000000000043978010009000900000032040100000004347474900000000002000010201105231633530777050100000000000200000000ROBLES HUAYNATE HEIDI ZELMIRA      0501022985
0198822330813     00087490000010001000000180101               00000000000190010201105231617540775050100000000000200000000ROSALES                       LEYVA0501022985
0198822330813     00090530000010001000000130101               00000000000040010201105231618020775050100000000000200000000ROSALES                       LEYVA0501022985
0190000000000000000037716010009000900000032040100000000422298100000000002000010201105231631050777050100000000000200000000SALAZAR LOYOLA HEBER FREDY         0501022985
0190521302034     09148230000010001000000180101               00000000000135010201105231533440183050100000000000200000000SANTANA                       ATENC0501022985
0190255305073     01154740000010001000000180101               00000000000110010201105231705410775050100000000000200000000SANTIAGO                      CRIST0501022985
0190621101020     09935760000010001000000180101               00000000000120010201105231610560775050100000000000200000000SOTO                          CUETO0501022985
0190722373116     01325910000010001000000220101               00000000000410010201105231713400778050100000000000200000000SOTO                          RIOS 0501022985