05584170105246       C875DC0   0001000000001000020120414475379120159000022637000
05584170105246       8E05C43   0001000000001000020120414475732120207000022637000
05584170105246       E70AC60   0001000000001000020120414476035120215000022637000
05584170105246       10927160  0001000000001000020120414476991120238000022637000
05584170105246       10937060  0001000000001200020120414477348120247000022637000
05584143613843       97034C    0001000000002000020120414116264093716000060024000
05584143613843       10A25664  0001000000000200020120414221307101920000060150000
05584170440834       931FC30   0001000000001200020120414287124104557000060022000
05584142732259       9A6B7EA   0001000000001200020120414502120121317000060446000
05584142321056       8CD3DF    0001000000001200020120414038054090645000070592000
05584143597460       9F7A0C0   0001000000001200020120414321746105945000072867000
05584143597460       E4ED928   0001000000004000020120414323923110040000072867000
05584143597460       9F3C040   0001000000001000020120414324919110103000072867000
05584140123189       A49716A   0001000000001200020120414595384125725000072867000
05584140123189       C6F0416   0001000000001200020120414597372125831000072867000
05584121560994       51DE296   0001000000004000020120414510827121704000123274000
05584121560994       51D4944   0001000000001200020120414511692121727000123274000
05584140906125       95F07E    0001000000000800020120414130676094305000145032000
05584140906125       86CA51    0001000000000800020120414130870094309000145032000
05584140906125       A40CB6    0001000000000800020120414131009094312000145032000
05584140906125       94FEE4    0001000000000800020120414131148094316000145032000
05584140906125       49FF39    0001000000001000020120414133274094407000145032000
05584140906125       75C550    0001000000001000020120414133532094413000145032000
05584140906125       498C61    0001000000001000020120414133685094416000145032000
05584140906125       BF0D9B    0001000000001000020120414133808094420000145032000
05584146315668       880DEF0   0001000000001200020120414424027114040000152783000
05584109783505       D5C6851   0001000000000400020120414433238114421000153633000
05584109656041       3D6DF4    0001000000001000020120414072860092027000212906000
05584109656041       4E295F    0001000000001000020120414073046092031000212906000
05584109656041       2F5F64    0001000000001000020120414073192092034000212906000
05584109656041       2C99CF    0001000000001000020120414073343092038000212906000
05584109656041       3BA5FA    0001000000000800020120414073594092044000212906000
0558496605071043     BB1331    0001000000001200020120414150731095110000253382000
05584108503640       9440EBC   0001000000004800020120414499752121218000253303000
05584115953015       46B3F6    0001000000001000020120414128856094220000262756000
05584106827828       BB78EB7   0001000000001200020120414506078121458000262752000
05584110398242       F42C750   0001000000000400020120414507843121544000262752000
05584144179361       10617A6E  0001000000000800020120414591430125516000262756000
05584125794974       81D99F4   0001000000000800020120414328391110224000303795000
05584125794974       DBC5A1E   0001000000000800020120414328613110230000303795000
05584125794974       81DA6E7   0001000000000800020120414328852110236000303795000
05584125794974       E583630   0001000000000800020120414330873110324000303795000
05584144914079       C4078F4   0001000000001200020120414368118111820000302865000
05584140196689       1177E9B4  0001000000004400020120414438503114631000300228000
05584140196689       19669CB0  0001000000001200020120414439046114644000300228000
05584140196689       C2BF770   0001000000000150020120414439737114659000300228000
05584142442547       71B73E4   0001000000001100020120414523608122237000300232000
05584142442547       8A10D27   0001000000001100020120414523824122243000300232000
05584142442547       923D4F8   0001000000001100020120414523938122246000300232000
05584142442547       617C4D8   0001000000001100020120414524065122249000300232000
05584143494907       1AA357    0001000000000400020120414080718092325000453063000
05584106541137       BFE7658   0001000000001200020120414581943125008000450998000
05584141904990       82B64C2   0001000000001200020120414584584125132000450998000
05584143322702       6FDE03    0001000000001000020120414117738093753000513199000
05584143322702       3FBD28    0001000000001000020120414118348093809000513199000
05584143322702       3F4C6C    0001000000001000020120414119023093825000513199000
05584143322702       FC4390    0001000000001000020120414119782093843000513199000
05584143322702       5E4442    0001000000000800020120414120479093859000513199000
0558492324196878     1048EBA   0001000000000800020120414151521095129000513201000
05584146006825       900A4E    0001000000001200020120414179342100236000513202000
05584109466533       11DEB26C  0001000000001200020120414216748101733000510616000
05584109466533       11DB4EA6  0001000000001000020120414216949101737000510616000
05584109466533       169F4B30  0001000000001000020120414217091101741000510616000
05584143404507       E0345C1   0001000000004400020120414379328112249000513200000
05584146362237       117808A4  0001000000002400020120414438455114630000513200000
05584146362237       E4BF55C   0001000000001200020120414438775114637000513200000
05584106936882       CAC5BE8   0001000000000600020120414443611114833000510615000
05584106936882       A0675EA   0001000000000200020120414444264114848000510615000
05584109976949       1C6AAB    0001000000001000020120414056155091359000542911000
05584109976949       200110    0001000000001000020120414056401091405000542911000
05584109976949       143C87    0001000000000800020120414057071091421000542911000
05584110508556       15E02C8   0001000000001000020120414122996093959000543076000
05584110508556       132ED0F   0001000000001000020120414123348094007000543076000
05584110508556       12289F8   0001000000001000020120414123789094018000543076000
05584110508556       BB7267    0001000000001000020120414125924094110000543076000
05584110508556       C89314    0001000000001200020120414126413094122000543076000
05584145291807       6026A0    0001000000001000020120414148471095013000542914000
05584142690819       4C7779    0001000000001000020120414184027100427000543076000
05584142690819       AD1DB     0001000000001000020120414184671100442000543076000
05584142690819       AC0880    0001000000001200020120414184995100449000543076000
05584146815970       11E173E4  0001000000000400020120414214824101647000543079000
05584107253895       D2304E0   0001000000000400020120414224121102030000542874000
0558492324196878     10097EA2  0001000000000400020120414353914111234000542912000
0558492324196878     9DE1060   0001000000000200020120414354205111241000542912000
05584106828268       CD02330   0001000000001000020120414363993111641000543076000
05584106828268       F3FF273   0001000000001000020120414364511111653000543076000
05584106828268       F542E23   0001000000001200020120414366191111733000543076000
05584110186790       C5FDC78   0001000000000800020120414497674121123000542874000
05584106935108       8C2D53D   0001000000001000020120414498501121145000542911000
05584110186790       5AB3874   0001000000001000020120414498578121147000542874000
05584106935108       736CDCE   0001000000001000020120414498718121150000542911000
05584106935108       BD82E24   0001000000001000020120414499010121158000542911000
05584110186790       A4D73BC   0001000000001000020120414499268121205000542874000
05584106935108       D61D550   0001000000001000020120414499939121223000542911000
05584110186790       ACED96E   0001000000001000020120414500045121226000542874000
05584106935108       DE4768E   0001000000000800020120414500492121237000542911000
05584110186790       E660030   0001000000001000020120414501511121303000542874000
05584145896864       9179F3A   0001000000000800020120414520586122117000543079000
05584145821734       24C372    0001000000001000020120414082410092403000553024000
05584145821734       41560     0001000000001000020120414083401092425000553024000
05584145821734       31CC68    0001000000001000020120414084003092439000553024000
05584145821734       3A54C0    0001000000001000020120414084297092445000553024000
05584145821734       1E8058    0001000000001200020120414085041092502000553024000
05584144385681       9688096   0001000000001000020120414567373124243000592923000
05584110680316       7C5C1DC   0001000000000400020120414547921123326000601876000
05584109960960       8BB8CD0   0001000000001200020120414592277125542000600204000
05584108288547       6BEEFA    0001000000001200020120414185734100506000623077000
05584110124398       AE80FFA   0001000000001000020120414300872105129000623077000
05584110124398       1134E44E  0001000000001000020120414302454105207000623077000
05584110124398       89A0F6C   0001000000001000020120414303607105234000623077000
05584110124398       E523231   0001000000001000020120414304886105304000623077000
05584144380220       9FEDC60   0001000000001000020120414548041123330000620403000
05584144380220       58DC26E   0001000000001000020120414548511123343000620403000
05584144380220       C493530   0001000000000800020120414549779123419000620403000
05584110629316       F0D83B8   0001000000000500020120414272050103951000743644000
05584141492014       141C326A  0001000000001200020120414439712114658000741904000
05584141492014       9826E00   0001000000004000020120414442729114811000741904000
05584145371952       EA0D473   0001000000001200020120414605654130328000741906000
05584144084388       9BF886C   0001000000001200020120414606365130357000741906000
05584144737232       4656800   0001000000000800020120414580457124919000762579000
05584140362127       8257314   0001000000000800020120414580866124934000762579000
05584140362127       ADC4BB4   0001000000002000020120414581062124939000762579000
05584121134942       2C4C34    0001000000002000020120414168965095828000910674000
05584121134942       7A2B5D    0001000000001200020120414169344095836000910674000
05584110296090       768426    0001000000000800020120414185217100455000910671000
05584110296090       75D9C7    0001000000000800020120414186058100514000910671000
05584110296090       5546E0    0001000000000800020120414186770100531000910671000
05584110296090       AADAF     0001000000000800020120414187291100544000910671000
05584140138649       DC272D8   0001000000000800020120414303302105227000910671000
05584145288426       78B0DC9   0001000000000400020120414409344113446000913632000
05584145797887       8F4E3FC   0001000000001100020120414458626115444000910669000
05584145797887       CA5A6E0   0001000000001100020120414458839115449000910669000
05584145797887       F47BD75   0001000000001100020120414458982115452000910669000
05584145797887       76112D2   0001000000001100020120414459115115456000910669000
05584140614061       736EB56   0001000000001100020120414498613121148000910669000
05584140614061       A4C5374   0001000000001100020120414498774121152000910669000
05584140614061       CE00414   0001000000001100020120414498919121156000910669000
05584140614061       A4C92BC   0001000000001100020120414499076121200000910669000
05584143467105       79E0C7B   0001000000000800020120414502058121316000910674000
05584109727871       8FC7A10   0001000000001000020120414539086122925000910671000
05584109727871       6BDAFB0   0001000000001000020120414539495122936000910671000
05584109727871       74C3A99   0001000000001000020120414540005122950000910671000
05584140614064       7A52012   0001000000004000020120414592043125534000910669000
05584145070302       6AC714    0001000000001100020120414187249100543000942770000
05584145888815       ACF75C6   0001000000001000020120414317889105814000942770000
05584145446642       DA4FA4A   0001000000002000020120414342539110801000942774000
05584145446642       DA41D6E   0001000000001200020120414343818110832000942774000
05584110819320       EC47C08   0001000000001200020120414346655110938000942774000
05584107670587       CEA1A2E   0001000000001200020120414348605111027000942774000
05584140019462       7442D9C   0001000000001000020120414371349111935000942771000
05584140019462       D5FB818   0001000000001000020120414372327112000000942771000
05584140019462       CC3BC2B   0001000000001000020120414372507112004000942771000
05584140019462       12D5A205  0001000000001000020120414372655112008000942771000
05584141959521       F2F3451   0001000000001200020120414374102112040000942773000
05584144686567       A50939A   0001000000002000020120414375436112113000942773000
05584143362237       D581B76   0001000000001000020120414376046112129000942771000
05584143362237       CBAFCB7   0001000000001000020120414376687112145000942771000
05584143362237       105EB2F3  0001000000001000020120414376886112150000942771000
05584143362237       B84CEB7   0001000000001000020120414377061112154000942771000
05584170105244       D2AF61D   0001000000001000020120414459674115510000942773000
05584170105244       86DE110   0001000000001200020120414460014115518000942773000
05584144635727       9645D13   0001000000000900020120414558324123819000942771000
05584145888815       31058C2   0001000000001000020120414607592130450000942773000
05584129408135       B29E6E4   0001000000000800020120414550634123443000981960000
05584110514721       C0E3D00   0001000000000800020120414398169113021000992708000
05584110514721       C8E6FCD   0001000000000200020120414398378113026000992708000
05584110514721       90B3EF2   0001000000000200020120414398526113029000992708000
05452141037850       FBD624    0001000000001000020120414164109095633003210238000
05452141342572       B6E1F58   0001000000001000020120414297800105016003210521000
05452143185424       FFD2F7C   0001000000001000020120414299382105054003210521000
05452143239684       13FAA0A0  0001000000001100020120414450521115123003214979000
05452140378559       13F820DC  0001000000001100020120414451388115144003214979000
0547990442101023     75FC50    0001000000000125020120414133900094422003211077000
05584115764407       FCF35C4   0001000000003200020120414262258103550003211077000
05584115764407       8330D5A   0001000000001200020120414262607103559003211077000
05568142037327       1567D844  0001000000000800020120414219590101840003312825000
05576177538249       7EC41EA   0001000000002500020120414196484100923003310884000
05576176282346       D89FBC1   0001000000001000020120414251840103137003313524000
05576173122167       6ECDBDC   0001000000002500020120414291365104738003313524000
05576147598573       B6E95D9   0001000000002500020120414384244112450003310883000
055769MEDINA CATIRI B7296328   0001000000002500020120414510562121657003310884000
05576177225656       B3E2618   0001000000002500020120414537368122841003313524000
05584141407815       6C9AC69   0001000000000900020120414475797120209003313524000
05584141407815       BDC2ECF   0001000000000900020120414476214120219003313524000
05584141407815       CF3759E   0001000000000900020120414477208120243003313524000
05576172313120       1D3F70    0001000000002500020120414097059092942003610829000
05576173249002       14142E44  0001000000002500020120414441709114745003610828000
05584146319579       A34FBCE   0001000000001200020120414312747105611003610828000
05584146319579       D08D21C   0001000000001000020120414313111105620003610828000
05584116005825       B2E3888   0001000000000200020120414318903105837003610828000
05584116018648       85AAC30   0001000000000800020120414475796120209003610828000
05576170287139       5F7E0     0001000000002500020120414091529092736003631329000
05584142731192       10C585B   0001000000001200020120414129798094244003631329000
05584142731192       867D80    0001000000002000020120414130569094303003631329000
05584143100424       C55358C   0001000000000800020120414355248111305005710728000
05584144619044       917EA5E   0001000000000800020120414377185112157005713529000
05584140015061       D736C68   0001000000000800020120414422451114002005710728000
05584146598497       51D52A4   0001000000000800020120414511644121725005710729000
05584144138967       7500F8    0001000000004000020120414053197091252007110968000
05584144138967       9A4058    0001000000000800020120414054947091332007110968000
99999000000000000000000000000000000000000236475000000200000000000000000000000000
